{
  "contractName": "ArtGallery",
  "abi": [
    {
      "inputs": [],
      "stateMutability": "nonpayable",
      "type": "constructor"
    },
    {
      "anonymous": false,
      "inputs": [
        {
          "indexed": true,
          "internalType": "address",
          "name": "owner",
          "type": "address"
        },
        {
          "indexed": true,
          "internalType": "address",
          "name": "approved",
          "type": "address"
        },
        {
          "indexed": true,
          "internalType": "uint256",
          "name": "tokenId",
          "type": "uint256"
        }
      ],
      "name": "Approval",
      "type": "event"
    },
    {
      "anonymous": false,
      "inputs": [
        {
          "indexed": true,
          "internalType": "address",
          "name": "owner",
          "type": "address"
        },
        {
          "indexed": true,
          "internalType": "address",
          "name": "operator",
          "type": "address"
        },
        {
          "indexed": false,
          "internalType": "bool",
          "name": "approved",
          "type": "bool"
        }
      ],
      "name": "ApprovalForAll",
      "type": "event"
    },
    {
      "anonymous": false,
      "inputs": [
        {
          "indexed": true,
          "internalType": "uint256",
          "name": "tokenId",
          "type": "uint256"
        },
        {
          "indexed": false,
          "internalType": "string",
          "name": "title",
          "type": "string"
        },
        {
          "indexed": true,
          "internalType": "address",
          "name": "artist",
          "type": "address"
        },
        {
          "indexed": false,
          "internalType": "uint256",
          "name": "price",
          "type": "uint256"
        }
      ],
      "name": "ArtworkCreated",
      "type": "event"
    },
    {
      "anonymous": false,
      "inputs": [
        {
          "indexed": true,
          "internalType": "uint256",
          "name": "tokenId",
          "type": "uint256"
        },
        {
          "indexed": true,
          "internalType": "address",
          "name": "from",
          "type": "address"
        },
        {
          "indexed": true,
          "internalType": "address",
          "name": "to",
          "type": "address"
        },
        {
          "indexed": false,
          "internalType": "uint256",
          "name": "price",
          "type": "uint256"
        }
      ],
      "name": "ArtworkSold",
      "type": "event"
    },
    {
      "anonymous": false,
      "inputs": [
        {
          "indexed": false,
          "internalType": "uint256",
          "name": "_fromTokenId",
          "type": "uint256"
        },
        {
          "indexed": false,
          "internalType": "uint256",
          "name": "_toTokenId",
          "type": "uint256"
        }
      ],
      "name": "BatchMetadataUpdate",
      "type": "event"
    },
    {
      "anonymous": false,
      "inputs": [
        {
          "indexed": true,
          "internalType": "string",
          "name": "galleryId",
          "type": "string"
        },
        {
          "indexed": false,
          "internalType": "string",
          "name": "name",
          "type": "string"
        },
        {
          "indexed": true,
          "internalType": "address",
          "name": "curator",
          "type": "address"
        }
      ],
      "name": "GalleryCreated",
      "type": "event"
    },
    {
      "anonymous": false,
      "inputs": [
        {
          "indexed": false,
          "internalType": "uint256",
          "name": "_tokenId",
          "type": "uint256"
        }
      ],
      "name": "MetadataUpdate",
      "type": "event"
    },
    {
      "anonymous": false,
      "inputs": [
        {
          "indexed": true,
          "internalType": "address",
          "name": "previousOwner",
          "type": "address"
        },
        {
          "indexed": true,
          "internalType": "address",
          "name": "newOwner",
          "type": "address"
        }
      ],
      "name": "OwnershipTransferred",
      "type": "event"
    },
    {
      "anonymous": false,
      "inputs": [
        {
          "indexed": true,
          "internalType": "uint256",
          "name": "tokenId",
          "type": "uint256"
        },
        {
          "indexed": false,
          "internalType": "uint256",
          "name": "newPrice",
          "type": "uint256"
        }
      ],
      "name": "PriceUpdated",
      "type": "event"
    },
    {
      "anonymous": false,
      "inputs": [
        {
          "indexed": true,
          "internalType": "uint256",
          "name": "tokenId",
          "type": "uint256"
        },
        {
          "indexed": true,
          "internalType": "address",
          "name": "reviewer",
          "type": "address"
        },
        {
          "indexed": false,
          "internalType": "string",
          "name": "comment",
          "type": "string"
        },
        {
          "indexed": false,
          "internalType": "uint256",
          "name": "rating",
          "type": "uint256"
        }
      ],
      "name": "ReviewAdded",
      "type": "event"
    },
    {
      "anonymous": false,
      "inputs": [
        {
          "indexed": true,
          "internalType": "uint256",
          "name": "tokenId",
          "type": "uint256"
        },
        {
          "indexed": true,
          "internalType": "address",
          "name": "artist",
          "type": "address"
        },
        {
          "indexed": false,
          "internalType": "uint256",
          "name": "amount",
          "type": "uint256"
        }
      ],
      "name": "RoyaltyPaid",
      "type": "event"
    },
    {
      "anonymous": false,
      "inputs": [
        {
          "indexed": true,
          "internalType": "address",
          "name": "from",
          "type": "address"
        },
        {
          "indexed": true,
          "internalType": "address",
          "name": "to",
          "type": "address"
        },
        {
          "indexed": true,
          "internalType": "uint256",
          "name": "tokenId",
          "type": "uint256"
        }
      ],
      "name": "Transfer",
      "type": "event"
    },
    {
      "inputs": [
        {
          "internalType": "address",
          "name": "to",
          "type": "address"
        },
        {
          "internalType": "uint256",
          "name": "tokenId",
          "type": "uint256"
        }
      ],
      "name": "approve",
      "outputs": [],
      "stateMutability": "nonpayable",
      "type": "function"
    },
    {
      "inputs": [
        {
          "internalType": "uint256",
          "name": "",
          "type": "uint256"
        }
      ],
      "name": "artworks",
      "outputs": [
        {
          "internalType": "string",
          "name": "title",
          "type": "string"
        },
        {
          "internalType": "address",
          "name": "artist",
          "type": "address"
        },
        {
          "internalType": "uint256",
          "name": "price",
          "type": "uint256"
        },
        {
          "internalType": "bool",
          "name": "forSale",
          "type": "bool"
        },
        {
          "internalType": "uint256",
          "name": "totalRatings",
          "type": "uint256"
        },
        {
          "internalType": "uint256",
          "name": "ratingSum",
          "type": "uint256"
        },
        {
          "internalType": "string",
          "name": "galleryId",
          "type": "string"
        },
        {
          "internalType": "uint256",
          "name": "royaltyPercentage",
          "type": "uint256"
        },
        {
          "internalType": "uint256",
          "name": "createdAt",
          "type": "uint256"
        }
      ],
      "stateMutability": "view",
      "type": "function"
    },
    {
      "inputs": [
        {
          "internalType": "address",
          "name": "owner",
          "type": "address"
        }
      ],
      "name": "balanceOf",
      "outputs": [
        {
          "internalType": "uint256",
          "name": "",
          "type": "uint256"
        }
      ],
      "stateMutability": "view",
      "type": "function"
    },
    {
      "inputs": [
        {
          "internalType": "string",
          "name": "",
          "type": "string"
        }
      ],
      "name": "galleries",
      "outputs": [
        {
          "internalType": "string",
          "name": "name",
          "type": "string"
        },
        {
          "internalType": "address",
          "name": "curator",
          "type": "address"
        },
        {
          "internalType": "bool",
          "name": "isActive",
          "type": "bool"
        },
        {
          "internalType": "string",
          "name": "description",
          "type": "string"
        },
        {
          "internalType": "uint256",
          "name": "createdAt",
          "type": "uint256"
        }
      ],
      "stateMutability": "view",
      "type": "function"
    },
    {
      "inputs": [
        {
          "internalType": "uint256",
          "name": "tokenId",
          "type": "uint256"
        }
      ],
      "name": "getApproved",
      "outputs": [
        {
          "internalType": "address",
          "name": "",
          "type": "address"
        }
      ],
      "stateMutability": "view",
      "type": "function"
    },
    {
      "inputs": [
        {
          "internalType": "uint256",
          "name": "",
          "type": "uint256"
        },
        {
          "internalType": "address",
          "name": "",
          "type": "address"
        }
      ],
      "name": "hasRated",
      "outputs": [
        {
          "internalType": "bool",
          "name": "",
          "type": "bool"
        }
      ],
      "stateMutability": "view",
      "type": "function"
    },
    {
      "inputs": [
        {
          "internalType": "address",
          "name": "owner",
          "type": "address"
        },
        {
          "internalType": "address",
          "name": "operator",
          "type": "address"
        }
      ],
      "name": "isApprovedForAll",
      "outputs": [
        {
          "internalType": "bool",
          "name": "",
          "type": "bool"
        }
      ],
      "stateMutability": "view",
      "type": "function"
    },
    {
      "inputs": [],
      "name": "name",
      "outputs": [
        {
          "internalType": "string",
          "name": "",
          "type": "string"
        }
      ],
      "stateMutability": "view",
      "type": "function"
    },
    {
      "inputs": [],
      "name": "owner",
      "outputs": [
        {
          "internalType": "address",
          "name": "",
          "type": "address"
        }
      ],
      "stateMutability": "view",
      "type": "function"
    },
    {
      "inputs": [
        {
          "internalType": "uint256",
          "name": "tokenId",
          "type": "uint256"
        }
      ],
      "name": "ownerOf",
      "outputs": [
        {
          "internalType": "address",
          "name": "",
          "type": "address"
        }
      ],
      "stateMutability": "view",
      "type": "function"
    },
    {
      "inputs": [],
      "name": "platformFee",
      "outputs": [
        {
          "internalType": "uint256",
          "name": "",
          "type": "uint256"
        }
      ],
      "stateMutability": "view",
      "type": "function"
    },
    {
      "inputs": [],
      "name": "renounceOwnership",
      "outputs": [],
      "stateMutability": "nonpayable",
      "type": "function"
    },
    {
      "inputs": [
        {
          "internalType": "uint256",
          "name": "",
          "type": "uint256"
        },
        {
          "internalType": "uint256",
          "name": "",
          "type": "uint256"
        }
      ],
      "name": "reviews",
      "outputs": [
        {
          "internalType": "address",
          "name": "reviewer",
          "type": "address"
        },
        {
          "internalType": "string",
          "name": "comment",
          "type": "string"
        },
        {
          "internalType": "uint256",
          "name": "rating",
          "type": "uint256"
        },
        {
          "internalType": "uint256",
          "name": "timestamp",
          "type": "uint256"
        }
      ],
      "stateMutability": "view",
      "type": "function"
    },
    {
      "inputs": [
        {
          "internalType": "address",
          "name": "from",
          "type": "address"
        },
        {
          "internalType": "address",
          "name": "to",
          "type": "address"
        },
        {
          "internalType": "uint256",
          "name": "tokenId",
          "type": "uint256"
        }
      ],
      "name": "safeTransferFrom",
      "outputs": [],
      "stateMutability": "nonpayable",
      "type": "function"
    },
    {
      "inputs": [
        {
          "internalType": "address",
          "name": "from",
          "type": "address"
        },
        {
          "internalType": "address",
          "name": "to",
          "type": "address"
        },
        {
          "internalType": "uint256",
          "name": "tokenId",
          "type": "uint256"
        },
        {
          "internalType": "bytes",
          "name": "data",
          "type": "bytes"
        }
      ],
      "name": "safeTransferFrom",
      "outputs": [],
      "stateMutability": "nonpayable",
      "type": "function"
    },
    {
      "inputs": [
        {
          "internalType": "address",
          "name": "operator",
          "type": "address"
        },
        {
          "internalType": "bool",
          "name": "approved",
          "type": "bool"
        }
      ],
      "name": "setApprovalForAll",
      "outputs": [],
      "stateMutability": "nonpayable",
      "type": "function"
    },
    {
      "inputs": [
        {
          "internalType": "bytes4",
          "name": "interfaceId",
          "type": "bytes4"
        }
      ],
      "name": "supportsInterface",
      "outputs": [
        {
          "internalType": "bool",
          "name": "",
          "type": "bool"
        }
      ],
      "stateMutability": "view",
      "type": "function"
    },
    {
      "inputs": [],
      "name": "symbol",
      "outputs": [
        {
          "internalType": "string",
          "name": "",
          "type": "string"
        }
      ],
      "stateMutability": "view",
      "type": "function"
    },
    {
      "inputs": [
        {
          "internalType": "uint256",
          "name": "tokenId",
          "type": "uint256"
        }
      ],
      "name": "tokenURI",
      "outputs": [
        {
          "internalType": "string",
          "name": "",
          "type": "string"
        }
      ],
      "stateMutability": "view",
      "type": "function"
    },
    {
      "inputs": [
        {
          "internalType": "address",
          "name": "from",
          "type": "address"
        },
        {
          "internalType": "address",
          "name": "to",
          "type": "address"
        },
        {
          "internalType": "uint256",
          "name": "tokenId",
          "type": "uint256"
        }
      ],
      "name": "transferFrom",
      "outputs": [],
      "stateMutability": "nonpayable",
      "type": "function"
    },
    {
      "inputs": [
        {
          "internalType": "address",
          "name": "newOwner",
          "type": "address"
        }
      ],
      "name": "transferOwnership",
      "outputs": [],
      "stateMutability": "nonpayable",
      "type": "function"
    },
    {
      "inputs": [
        {
          "internalType": "address",
          "name": "",
          "type": "address"
        },
        {
          "internalType": "uint256",
          "name": "",
          "type": "uint256"
        }
      ],
      "name": "userArtworks",
      "outputs": [
        {
          "internalType": "uint256",
          "name": "",
          "type": "uint256"
        }
      ],
      "stateMutability": "view",
      "type": "function"
    },
    {
      "inputs": [
        {
          "internalType": "address",
          "name": "",
          "type": "address"
        },
        {
          "internalType": "uint256",
          "name": "",
          "type": "uint256"
        }
      ],
      "name": "userGalleries",
      "outputs": [
        {
          "internalType": "string",
          "name": "",
          "type": "string"
        }
      ],
      "stateMutability": "view",
      "type": "function"
    },
    {
      "inputs": [
        {
          "internalType": "string",
          "name": "title",
          "type": "string"
        },
        {
          "internalType": "string",
          "name": "tokenURI",
          "type": "string"
        },
        {
          "internalType": "uint256",
          "name": "price",
          "type": "uint256"
        },
        {
          "internalType": "string",
          "name": "galleryId",
          "type": "string"
        },
        {
          "internalType": "uint256",
          "name": "royaltyPercentage",
          "type": "uint256"
        }
      ],
      "name": "createArtwork",
      "outputs": [
        {
          "internalType": "uint256",
          "name": "",
          "type": "uint256"
        }
      ],
      "stateMutability": "nonpayable",
      "type": "function"
    },
    {
      "inputs": [
        {
          "internalType": "uint256",
          "name": "tokenId",
          "type": "uint256"
        }
      ],
      "name": "purchaseArtwork",
      "outputs": [],
      "stateMutability": "payable",
      "type": "function"
    },
    {
      "inputs": [
        {
          "internalType": "string",
          "name": "galleryId",
          "type": "string"
        },
        {
          "internalType": "string",
          "name": "name",
          "type": "string"
        },
        {
          "internalType": "string",
          "name": "description",
          "type": "string"
        }
      ],
      "name": "createGallery",
      "outputs": [],
      "stateMutability": "nonpayable",
      "type": "function"
    },
    {
      "inputs": [
        {
          "internalType": "uint256",
          "name": "tokenId",
          "type": "uint256"
        },
        {
          "internalType": "string",
          "name": "comment",
          "type": "string"
        },
        {
          "internalType": "uint256",
          "name": "rating",
          "type": "uint256"
        }
      ],
      "name": "addReview",
      "outputs": [],
      "stateMutability": "nonpayable",
      "type": "function"
    },
    {
      "inputs": [
        {
          "internalType": "uint256",
          "name": "tokenId",
          "type": "uint256"
        }
      ],
      "name": "getArtwork",
      "outputs": [
        {
          "internalType": "string",
          "name": "title",
          "type": "string"
        },
        {
          "internalType": "address",
          "name": "artist",
          "type": "address"
        },
        {
          "internalType": "uint256",
          "name": "price",
          "type": "uint256"
        },
        {
          "internalType": "bool",
          "name": "forSale",
          "type": "bool"
        },
        {
          "internalType": "uint256",
          "name": "avgRating",
          "type": "uint256"
        },
        {
          "internalType": "string",
          "name": "galleryId",
          "type": "string"
        },
        {
          "internalType": "uint256",
          "name": "royaltyPercentage",
          "type": "uint256"
        }
      ],
      "stateMutability": "view",
      "type": "function"
    },
    {
      "inputs": [
        {
          "internalType": "string",
          "name": "galleryId",
          "type": "string"
        }
      ],
      "name": "getGalleryArtworks",
      "outputs": [
        {
          "internalType": "uint256[]",
          "name": "",
          "type": "uint256[]"
        }
      ],
      "stateMutability": "view",
      "type": "function"
    },
    {
      "inputs": [
        {
          "internalType": "address",
          "name": "user",
          "type": "address"
        }
      ],
      "name": "getUserArtworks",
      "outputs": [
        {
          "internalType": "uint256[]",
          "name": "",
          "type": "uint256[]"
        }
      ],
      "stateMutability": "view",
      "type": "function"
    },
    {
      "inputs": [
        {
          "internalType": "address",
          "name": "user",
          "type": "address"
        }
      ],
      "name": "getUserGalleries",
      "outputs": [
        {
          "internalType": "string[]",
          "name": "",
          "type": "string[]"
        }
      ],
      "stateMutability": "view",
      "type": "function"
    },
    {
      "inputs": [
        {
          "internalType": "uint256",
          "name": "newFee",
          "type": "uint256"
        }
      ],
      "name": "updatePlatformFee",
      "outputs": [],
      "stateMutability": "nonpayable",
      "type": "function"
    }
  ],
  "bytecode": "0x60806040526019600b5534801562000015575f80fd5b506040518060400160405280600f81526020016e4e4654204172742047616c6c65727960881b815250604051806040016040528060038152602001624e414760e81b815250815f90816200006a919062000183565b50600162000079828262000183565b50506001600755506200008c3362000092565b6200024b565b600880546001600160a01b038381166001600160a01b0319831681179093556040519116919082907f8be0079c531659141344cd1fd0a4f28419497f9722a3daafe3b4186f6b6457e0905f90a35050565b634e487b7160e01b5f52604160045260245ffd5b600181811c908216806200010c57607f821691505b6020821081036200012b57634e487b7160e01b5f52602260045260245ffd5b50919050565b601f8211156200017e575f81815260208120601f850160051c81016020861015620001595750805b601f850160051c820191505b818110156200017a5782815560010162000165565b5050505b505050565b81516001600160401b038111156200019f576200019f620000e3565b620001b781620001b08454620000f7565b8462000131565b602080601f831160018114620001ed575f8415620001d55750858301515b5f19600386901b1c1916600185901b1785556200017a565b5f85815260208120601f198616915b828110156200021d57888601518255948401946001909101908401620001fc565b50858210156200023b57878501515f19600388901b60f8161c191681555b5050505050600190811b01905550565b61334480620002595f395ff3fe6080604052600436106101db575f3560e01c8063715018a6116100fd578063aa0b598811610092578063cb9b31f911610062578063cb9b31f9146105d1578063e985e9c5146105f0578063f2fde38b1461060f578063fb141e901461062e575f80fd5b8063aa0b598814610544578063b764447a14610563578063b88d4fde14610593578063c87b56dd146105b2575f80fd5b806394cdf85f116100cd57806394cdf85f146104c357806395d89b41146104e2578063a22cb465146104f6578063a7264f8814610515575f80fd5b8063715018a61461043a578063764544861461044e57806389605c07146104875780638da5cb5b146104a6575f80fd5b80633b72bde01161017357806342842e0e1161014357806342842e0e146103a95780634b602673146103c85780636352211e146103fc57806370a082311461041b575f80fd5b80633b72bde0146103135780633be4ab551461033f5780633ee39bd61461035e5780633f6f5b891461038a575f80fd5b80631287fb92116101ae5780631287fb921461028c578063167ddf6e1461029f57806323b872dd146102d157806326232a2e146102f0575f80fd5b806301ffc9a7146101df57806306fdde0314610213578063081812fc14610234578063095ea7b31461026b575b5f80fd5b3480156101ea575f80fd5b506101fe6101f93660046128fe565b61064d565b60405190151581526020015b60405180910390f35b34801561021e575f80fd5b50610227610677565b60405161020a9190612966565b34801561023f575f80fd5b5061025361024e366004612978565b610706565b6040516001600160a01b03909116815260200161020a565b348015610276575f80fd5b5061028a6102853660046129aa565b61072b565b005b61028a61029a366004612978565b610844565b3480156102aa575f80fd5b506102be6102b9366004612978565b610ae9565b60405161020a97969594939291906129d2565b3480156102dc575f80fd5b5061028a6102eb366004612a30565b610c9e565b3480156102fb575f80fd5b50610305600b5481565b60405190815260200161020a565b34801561031e575f80fd5b5061033261032d366004612b0e565b610ccf565b60405161020a9190612b40565b34801561034a575f80fd5b50610305610359366004612b83565b610dab565b348015610369575f80fd5b5061037d610378366004612c16565b6110d3565b60405161020a9190612c2f565b348015610395575f80fd5b506103056103a43660046129aa565b6111bd565b3480156103b4575f80fd5b5061028a6103c3366004612a30565b6111e8565b3480156103d3575f80fd5b506103e76103e2366004612978565b611202565b60405161020a99989796959493929190612c8f565b348015610407575f80fd5b50610253610416366004612978565b611368565b348015610426575f80fd5b50610305610435366004612c16565b6113c7565b348015610445575f80fd5b5061028a61144b565b348015610459575f80fd5b506101fe610468366004612cfc565b600f60209081525f928352604080842090915290825290205460ff1681565b348015610492575f80fd5b5061028a6104a1366004612d26565b61145e565b3480156104b1575f80fd5b506008546001600160a01b0316610253565b3480156104ce575f80fd5b5061028a6104dd366004612da8565b6116ee565b3480156104ed575f80fd5b50610227611910565b348015610501575f80fd5b5061028a610510366004612df4565b61191f565b348015610520575f80fd5b5061053461052f366004612e2d565b61192e565b60405161020a9493929190612e4d565b34801561054f575f80fd5b5061028a61055e366004612978565b611a04565b34801561056e575f80fd5b5061058261057d366004612b0e565b611a5a565b60405161020a959493929190612e83565b34801561059e575f80fd5b5061028a6105ad366004612ed1565b611bb1565b3480156105bd575f80fd5b506102276105cc366004612978565b611be9565b3480156105dc575f80fd5b506103326105eb366004612c16565b611cf3565b3480156105fb575f80fd5b506101fe61060a366004612f48565b611d5a565b34801561061a575f80fd5b5061028a610629366004612c16565b611d87565b348015610639575f80fd5b506102276106483660046129aa565b611dfd565b5f6001600160e01b03198216632483248360e11b1480610671575061067182611eae565b92915050565b60605f805461068590612f70565b80601f01602080910402602001604051908101604052809291908181526020018280546106b190612f70565b80156106fc5780601f106106d3576101008083540402835291602001916106fc565b820191905f5260205f20905b8154815290600101906020018083116106df57829003601f168201915b5050505050905090565b5f61071082611efd565b505f908152600460205260409020546001600160a01b031690565b5f61073582611368565b9050806001600160a01b0316836001600160a01b0316036107a75760405162461bcd60e51b815260206004820152602160248201527f4552433732313a20617070726f76616c20746f2063757272656e74206f776e656044820152603960f91b60648201526084015b60405180910390fd5b336001600160a01b03821614806107c357506107c38133611d5a565b6108355760405162461bcd60e51b815260206004820152603d60248201527f4552433732313a20617070726f76652063616c6c6572206973206e6f7420746f60448201527f6b656e206f776e6572206f7220617070726f76656420666f7220616c6c000000606482015260840161079e565b61083f8383611f4d565b505050565b61084c611fba565b61085581612013565b6108715760405162461bcd60e51b815260040161079e90612fa8565b5f818152600c60205260409020600381015460ff166108d25760405162461bcd60e51b815260206004820152601760248201527f417274776f726b206973206e6f7420666f722073616c65000000000000000000604482015260640161079e565b806002015434101561091d5760405162461bcd60e51b8152602060048201526014602482015273125b9cdd59999a58da595b9d081c185e5b595b9d60621b604482015260640161079e565b5f61092783611368565b90505f6103e8600b543461093b9190612fec565b6109459190613003565b60018401549091505f906001600160a01b038481169116146109ff5760648460070154346109739190612fec565b61097d9190613003565b60018501546040519192506001600160a01b03169082156108fc029083905f818181858888f193505050501580156109b7573d5f803e3d5ffd5b5060018401546040518281526001600160a01b039091169086907ff670029fc6f5302baba881b4ae845d1453acdf752b4c19ed81fe0fa6a686409b9060200160405180910390a35b610a0a83338761202f565b6008546040516001600160a01b039091169083156108fc029084905f818181858888f19350505050158015610a41573d5f803e3d5ffd5b506001600160a01b0383166108fc82610a5a8534613022565b610a649190613022565b6040518115909202915f818181858888f19350505050158015610a89573d5f803e3d5ffd5b5060038401805460ff1916905560405134815233906001600160a01b0385169087907f0634626e616f8a7485091cf43f024011ba5d9b8fcbe8eac44a3efe20f7dfb6049060200160405180910390a450505050610ae66001600755565b50565b60605f805f8060605f610afb88612013565b610b175760405162461bcd60e51b815260040161079e90612fa8565b5f888152600c60205260409020600181015460028201546003830154600484015484936001600160a01b0316929160ff1690610b53575f610b67565b84600401548560050154610b679190613003565b856006018660070154868054610b7c90612f70565b80601f0160208091040260200160405190810160405280929190818152602001828054610ba890612f70565b8015610bf35780601f10610bca57610100808354040283529160200191610bf3565b820191905f5260205f20905b815481529060010190602001808311610bd657829003601f168201915b50505050509650818054610c0690612f70565b80601f0160208091040260200160405190810160405280929190818152602001828054610c3290612f70565b8015610c7d5780601f10610c5457610100808354040283529160200191610c7d565b820191905f5260205f20905b815481529060010190602001808311610c6057829003601f168201915b50505050509150975097509750975097509750975050919395979092949650565b610ca83382612191565b610cc45760405162461bcd60e51b815260040161079e90613035565b61083f83838361202f565b6060600d82604051610ce19190613082565b9081526040519081900360200190206003015460ff16610d3c5760405162461bcd60e51b815260206004820152601660248201527511d85b1b195c9e48191bd95cc81b9bdd08195e1a5cdd60521b604482015260640161079e565b600d82604051610d4c9190613082565b9081526040805191829003602090810183206002018054808302850183019093528284529190830182828015610d9f57602002820191905f5260205f20905b815481526020019060010190808311610d8b575b50505050509050919050565b5f610db4611fba565b5f865111610dfc5760405162461bcd60e51b81526020600482015260156024820152745469746c652063616e6e6f7420626520656d70747960581b604482015260640161079e565b5f8411610e4b5760405162461bcd60e51b815260206004820152601c60248201527f5072696365206d7573742062652067726561746572207468616e203000000000604482015260640161079e565b600d83604051610e5b9190613082565b9081526040519081900360200190206003015460ff16610eb65760405162461bcd60e51b815260206004820152601660248201527511d85b1b195c9e48191bd95cc81b9bdd08195e1a5cdd60521b604482015260640161079e565b6064821115610f135760405162461bcd60e51b8152602060048201526024808201527f526f79616c74792070657263656e746167652063616e6e6f74206578636565646044820152630203130360e41b606482015260840161079e565b610f21600980546001019055565b5f610f2b60095490565b9050610f3733826121ee565b610f41818761235a565b604080516101208101825288815233602080830191909152818301889052600160608301525f6080830181905260a0830181905260c0830188905260e0830187905242610100840152848152600c9091529190912081518190610fa490826130ea565b5060208201516001820180546001600160a01b0319166001600160a01b0390921691909117905560408201516002820155606082015160038201805460ff19169115159190911790556080820151600482015560a0820151600582015560c0820151600682019061101590826130ea565b5060e082015181600701556101008201518160080155905050600d8460405161103e9190613082565b9081526040805191829003602090810183206002018054600181810183555f9283528383209091018690553380835260108452938220805491820181558252919020018390559082907f6260412ff0bd9bf68b3b83f331ea530d04a28fba5be6f5d3c70371eb5b9da834906110b6908b908a906131a6565b60405180910390a390506110ca6001600755565b95945050505050565b6001600160a01b0381165f908152601160209081526040808320805482518185028101850190935280835260609492939192909184015b828210156111b2578382905f5260205f2001805461112790612f70565b80601f016020809104026020016040519081016040528092919081815260200182805461115390612f70565b801561119e5780601f106111755761010080835404028352916020019161119e565b820191905f5260205f20905b81548152906001019060200180831161118157829003601f168201915b50505050508152602001906001019061110a565b505050509050919050565b6010602052815f5260405f2081815481106111d6575f80fd5b905f5260205f20015f91509150505481565b61083f83838360405180602001604052805f815250611bb1565b600c6020525f908152604090208054819061121c90612f70565b80601f016020809104026020016040519081016040528092919081815260200182805461124890612f70565b80156112935780601f1061126a57610100808354040283529160200191611293565b820191905f5260205f20905b81548152906001019060200180831161127657829003601f168201915b505050506001830154600284015460038501546004860154600587015460068801805497986001600160a01b039096169794965060ff9093169491939092906112db90612f70565b80601f016020809104026020016040519081016040528092919081815260200182805461130790612f70565b80156113525780601f1061132957610100808354040283529160200191611352565b820191905f5260205f20905b81548152906001019060200180831161133557829003601f168201915b5050505050908060070154908060080154905089565b5f818152600260205260408120546001600160a01b0316806106715760405162461bcd60e51b8152602060048201526018602482015277115490cdcc8c4e881a5b9d985b1a59081d1bdad95b88125160421b604482015260640161079e565b5f6001600160a01b0382166114305760405162461bcd60e51b815260206004820152602960248201527f4552433732313a2061646472657373207a65726f206973206e6f7420612076616044820152683634b21037bbb732b960b91b606482015260840161079e565b506001600160a01b03165f9081526003602052604090205490565b611453612415565b61145c5f61246f565b565b5f8351116114ae5760405162461bcd60e51b815260206004820152601a60248201527f47616c6c6572792049442063616e6e6f7420626520656d707479000000000000604482015260640161079e565b5f8251116114fe5760405162461bcd60e51b815260206004820152601c60248201527f47616c6c657279206e616d652063616e6e6f7420626520656d70747900000000604482015260640161079e565b600d8360405161150e9190613082565b9081526040519081900360200190206003015460ff16156115715760405162461bcd60e51b815260206004820152601960248201527f47616c6c65727920494420616c72656164792065786973747300000000000000604482015260640161079e565b6040805160c0810182528381523360208201529081015f6040519080825280602002602001820160405280156115b1578160200160208202803683370190505b50815260200160011515815260200182815260200142815250600d846040516115da9190613082565b908152604051908190036020019020815181906115f790826130ea565b506020828101516001830180546001600160a01b0319166001600160a01b0390921691909117905560408301518051611636926002850192019061288c565b50606082015160038201805460ff19169115159190911790556080820151600482019061166390826130ea565b5060a09190910151600590910155335f9081526011602090815260408220805460018101825590835291200161169984826130ea565b5060405133906116aa908590613082565b60405180910390207fe9c0cdf1bfad6c5c48dcd9bdb23b94ac8ac6135d721d6bc79bfa3b19fb411674846040516116e19190612966565b60405180910390a3505050565b6116f783612013565b6117135760405162461bcd60e51b815260040161079e90612fa8565b60018110158015611725575060058111155b6117715760405162461bcd60e51b815260206004820152601e60248201527f526174696e67206d757374206265206265747765656e203120616e6420350000604482015260640161079e565b5f838152600f6020908152604080832033845290915290205460ff16156117e65760405162461bcd60e51b815260206004820152602360248201527f557365722068617320616c7265616479207261746564207468697320617274776044820152626f726b60e81b606482015260840161079e565b5f838152600e60209081526040808320815160808101835233815280840187815292810186905242606082015281546001808201845592865293909420845160049094020180546001600160a01b0319166001600160a01b0390941693909317835590519082019061185890826130ea565b5060408281015160028301556060909201516003909101555f848152600c602052908120600481018054919261188d836131c7565b919050555081816005015f8282546118a591906131df565b90915550505f848152600f6020908152604080832033808552925291829020805460ff19166001179055905185907ff5b48fcd3f5e0ef5f6f5a50588fc666bda623b19888849dd6149681e96b637359061190290879087906131a6565b60405180910390a350505050565b60606001805461068590612f70565b61192a3383836124c0565b5050565b600e602052815f5260405f208181548110611947575f80fd5b5f918252602090912060049091020180546001820180546001600160a01b03909216945091925061197790612f70565b80601f01602080910402602001604051908101604052809291908181526020018280546119a390612f70565b80156119ee5780601f106119c5576101008083540402835291602001916119ee565b820191905f5260205f20905b8154815290600101906020018083116119d157829003601f168201915b5050505050908060020154908060030154905084565b611a0c612415565b6064811115611a555760405162461bcd60e51b81526020600482015260156024820152744665652063616e6e6f74206578636565642031302560581b604482015260640161079e565b600b55565b8051602081830181018051600d82529282019190930120915280548190611a8090612f70565b80601f0160208091040260200160405190810160405280929190818152602001828054611aac90612f70565b8015611af75780601f10611ace57610100808354040283529160200191611af7565b820191905f5260205f20905b815481529060010190602001808311611ada57829003601f168201915b505050506001830154600384015460048501805494956001600160a01b039093169460ff909216935090611b2a90612f70565b80601f0160208091040260200160405190810160405280929190818152602001828054611b5690612f70565b8015611ba15780601f10611b7857610100808354040283529160200191611ba1565b820191905f5260205f20905b815481529060010190602001808311611b8457829003601f168201915b5050505050908060050154905085565b611bbb3383612191565b611bd75760405162461bcd60e51b815260040161079e90613035565b611be384848484612585565b50505050565b6060611bf482611efd565b5f8281526006602052604081208054611c0c90612f70565b80601f0160208091040260200160405190810160405280929190818152602001828054611c3890612f70565b8015611c835780601f10611c5a57610100808354040283529160200191611c83565b820191905f5260205f20905b815481529060010190602001808311611c6657829003601f168201915b505050505090505f611c9f60408051602081019091525f815290565b905080515f03611cb0575092915050565b815115611ce2578082604051602001611cca9291906131f2565b60405160208183030381529060405292505050919050565b611ceb846125b8565b949350505050565b6001600160a01b0381165f90815260106020908152604091829020805483518184028101840190945280845260609392830182828015610d9f57602002820191905f5260205f2090815481526020019060010190808311610d8b5750505050509050919050565b6001600160a01b039182165f90815260056020908152604080832093909416825291909152205460ff1690565b611d8f612415565b6001600160a01b038116611df45760405162461bcd60e51b815260206004820152602660248201527f4f776e61626c653a206e6577206f776e657220697320746865207a65726f206160448201526564647265737360d01b606482015260840161079e565b610ae68161246f565b6011602052815f5260405f208181548110611e16575f80fd5b905f5260205f20015f91509150508054611e2f90612f70565b80601f0160208091040260200160405190810160405280929190818152602001828054611e5b90612f70565b8015611ea65780601f10611e7d57610100808354040283529160200191611ea6565b820191905f5260205f20905b815481529060010190602001808311611e8957829003601f168201915b505050505081565b5f6001600160e01b031982166380ac58cd60e01b1480611ede57506001600160e01b03198216635b5e139f60e01b145b8061067157506301ffc9a760e01b6001600160e01b0319831614610671565b611f0681612013565b610ae65760405162461bcd60e51b8152602060048201526018602482015277115490cdcc8c4e881a5b9d985b1a59081d1bdad95b88125160421b604482015260640161079e565b5f81815260046020526040902080546001600160a01b0319166001600160a01b0384169081179091558190611f8182611368565b6001600160a01b03167f8c5be1e5ebec7d5bd14f71427d1e84f3dd0314c0f7b2291e5b200ac8c7c3b92560405160405180910390a45050565b60026007540361200c5760405162461bcd60e51b815260206004820152601f60248201527f5265656e7472616e637947756172643a207265656e7472616e742063616c6c00604482015260640161079e565b6002600755565b5f908152600260205260409020546001600160a01b0316151590565b826001600160a01b031661204282611368565b6001600160a01b0316146120685760405162461bcd60e51b815260040161079e90613220565b6001600160a01b0382166120ca5760405162461bcd60e51b8152602060048201526024808201527f4552433732313a207472616e7366657220746f20746865207a65726f206164646044820152637265737360e01b606482015260840161079e565b826001600160a01b03166120dd82611368565b6001600160a01b0316146121035760405162461bcd60e51b815260040161079e90613220565b5f81815260046020908152604080832080546001600160a01b03199081169091556001600160a01b038781168086526003855283862080545f1901905590871680865283862080546001019055868652600290945282852080549092168417909155905184937fddf252ad1be2c89b69c2b068fc378daa952ba7f163c4a11628f55a4df523b3ef91a4505050565b5f8061219c83611368565b9050806001600160a01b0316846001600160a01b031614806121c357506121c38185611d5a565b80611ceb5750836001600160a01b03166121dc84610706565b6001600160a01b031614949350505050565b6001600160a01b0382166122445760405162461bcd60e51b815260206004820181905260248201527f4552433732313a206d696e7420746f20746865207a65726f2061646472657373604482015260640161079e565b61224d81612013565b1561229a5760405162461bcd60e51b815260206004820152601c60248201527f4552433732313a20746f6b656e20616c7265616479206d696e74656400000000604482015260640161079e565b6122a381612013565b156122f05760405162461bcd60e51b815260206004820152601c60248201527f4552433732313a20746f6b656e20616c7265616479206d696e74656400000000604482015260640161079e565b6001600160a01b0382165f81815260036020908152604080832080546001019055848352600290915280822080546001600160a01b0319168417905551839291907fddf252ad1be2c89b69c2b068fc378daa952ba7f163c4a11628f55a4df523b3ef908290a45050565b61236382612013565b6123c65760405162461bcd60e51b815260206004820152602e60248201527f45524337323155524953746f726167653a2055524920736574206f66206e6f6e60448201526d32bc34b9ba32b73a103a37b5b2b760911b606482015260840161079e565b5f8281526006602052604090206123dd82826130ea565b506040518281527ff8e1a15aba9398e019f0b49df1a4fde98ee17ae345cb5f6b5e2c27f5033e8ce79060200160405180910390a15050565b6008546001600160a01b0316331461145c5760405162461bcd60e51b815260206004820181905260248201527f4f776e61626c653a2063616c6c6572206973206e6f7420746865206f776e6572604482015260640161079e565b600880546001600160a01b038381166001600160a01b0319831681179093556040519116919082907f8be0079c531659141344cd1fd0a4f28419497f9722a3daafe3b4186f6b6457e0905f90a35050565b816001600160a01b0316836001600160a01b0316036125215760405162461bcd60e51b815260206004820152601960248201527f4552433732313a20617070726f766520746f2063616c6c657200000000000000604482015260640161079e565b6001600160a01b038381165f81815260056020908152604080832094871680845294825291829020805460ff191686151590811790915591519182527f17307eab39ab6107e8899845ad3d59bd9653f200f220920489ca2b5937696c3191016116e1565b61259084848461202f565b61259c84848484612628565b611be35760405162461bcd60e51b815260040161079e90613265565b60606125c382611efd565b5f6125d860408051602081019091525f815290565b90505f8151116125f65760405180602001604052805f815250612621565b8061260084612725565b6040516020016126119291906131f2565b6040516020818303038152906040525b9392505050565b5f6001600160a01b0384163b1561271a57604051630a85bd0160e11b81526001600160a01b0385169063150b7a029061266b9033908990889088906004016132b7565b6020604051808303815f875af19250505080156126a5575060408051601f3d908101601f191682019092526126a2918101906132f3565b60015b612700573d8080156126d2576040519150601f19603f3d011682016040523d82523d5f602084013e6126d7565b606091505b5080515f036126f85760405162461bcd60e51b815260040161079e90613265565b805181602001fd5b6001600160e01b031916630a85bd0160e11b149050611ceb565b506001949350505050565b60605f612731836127b5565b60010190505f8167ffffffffffffffff81111561275057612750612a69565b6040519080825280601f01601f19166020018201604052801561277a576020820181803683370190505b5090508181016020015b5f19016f181899199a1a9b1b9c1cb0b131b232b360811b600a86061a8153600a850494508461278457509392505050565b5f8072184f03e93ff9f4daa797ed6e38ed64bf6a1f0160401b83106127f35772184f03e93ff9f4daa797ed6e38ed64bf6a1f0160401b830492506040015b6d04ee2d6d415b85acef8100000000831061281f576d04ee2d6d415b85acef8100000000830492506020015b662386f26fc10000831061283d57662386f26fc10000830492506010015b6305f5e1008310612855576305f5e100830492506008015b612710831061286957612710830492506004015b6064831061287b576064830492506002015b600a83106106715760010192915050565b828054828255905f5260205f209081019282156128c5579160200282015b828111156128c55782518255916020019190600101906128aa565b506128d19291506128d5565b5090565b5b808211156128d1575f81556001016128d6565b6001600160e01b031981168114610ae6575f80fd5b5f6020828403121561290e575f80fd5b8135612621816128e9565b5f5b8381101561293357818101518382015260200161291b565b50505f910152565b5f8151808452612952816020860160208601612919565b601f01601f19169290920160200192915050565b602081525f612621602083018461293b565b5f60208284031215612988575f80fd5b5035919050565b80356001600160a01b03811681146129a5575f80fd5b919050565b5f80604083850312156129bb575f80fd5b6129c48361298f565b946020939093013593505050565b60e081525f6129e460e083018a61293b565b6001600160a01b03891660208401526040830188905286151560608401526080830186905282810360a0840152612a1b818661293b565b9150508260c083015298975050505050505050565b5f805f60608486031215612a42575f80fd5b612a4b8461298f565b9250612a596020850161298f565b9150604084013590509250925092565b634e487b7160e01b5f52604160045260245ffd5b5f67ffffffffffffffff80841115612a9757612a97612a69565b604051601f8501601f19908116603f01168101908282118183101715612abf57612abf612a69565b81604052809350858152868686011115612ad7575f80fd5b858560208301375f602087830101525050509392505050565b5f82601f830112612aff575f80fd5b61262183833560208501612a7d565b5f60208284031215612b1e575f80fd5b813567ffffffffffffffff811115612b34575f80fd5b611ceb84828501612af0565b602080825282518282018190525f9190848201906040850190845b81811015612b7757835183529284019291840191600101612b5b565b50909695505050505050565b5f805f805f60a08688031215612b97575f80fd5b853567ffffffffffffffff80821115612bae575f80fd5b612bba89838a01612af0565b96506020880135915080821115612bcf575f80fd5b612bdb89838a01612af0565b9550604088013594506060880135915080821115612bf7575f80fd5b50612c0488828901612af0565b95989497509295608001359392505050565b5f60208284031215612c26575f80fd5b6126218261298f565b5f602080830181845280855180835260408601915060408160051b87010192508387015f5b82811015612c8257603f19888603018452612c7085835161293b565b94509285019290850190600101612c54565b5092979650505050505050565b5f610120808352612ca28184018d61293b565b6001600160a01b038c166020850152604084018b905289151560608501526080840189905260a0840188905283810360c08501529050612ce2818761293b565b60e084019590955250506101000152979650505050505050565b5f8060408385031215612d0d575f80fd5b82359150612d1d6020840161298f565b90509250929050565b5f805f60608486031215612d38575f80fd5b833567ffffffffffffffff80821115612d4f575f80fd5b612d5b87838801612af0565b94506020860135915080821115612d70575f80fd5b612d7c87838801612af0565b93506040860135915080821115612d91575f80fd5b50612d9e86828701612af0565b9150509250925092565b5f805f60608486031215612dba575f80fd5b83359250602084013567ffffffffffffffff811115612dd7575f80fd5b612de386828701612af0565b925050604084013590509250925092565b5f8060408385031215612e05575f80fd5b612e0e8361298f565b915060208301358015158114612e22575f80fd5b809150509250929050565b5f8060408385031215612e3e575f80fd5b50508035926020909101359150565b6001600160a01b03851681526080602082018190525f90612e709083018661293b565b6040830194909452506060015292915050565b60a081525f612e9560a083018861293b565b6001600160a01b038716602084015285151560408401528281036060840152612ebe818661293b565b9150508260808301529695505050505050565b5f805f8060808587031215612ee4575f80fd5b612eed8561298f565b9350612efb6020860161298f565b925060408501359150606085013567ffffffffffffffff811115612f1d575f80fd5b8501601f81018713612f2d575f80fd5b612f3c87823560208401612a7d565b91505092959194509250565b5f8060408385031215612f59575f80fd5b612f628361298f565b9150612d1d6020840161298f565b600181811c90821680612f8457607f821691505b602082108103612fa257634e487b7160e01b5f52602260045260245ffd5b50919050565b602080825260169082015275105c9d1ddbdc9ac8191bd95cc81b9bdd08195e1a5cdd60521b604082015260600190565b634e487b7160e01b5f52601160045260245ffd5b808202811582820484141761067157610671612fd8565b5f8261301d57634e487b7160e01b5f52601260045260245ffd5b500490565b8181038181111561067157610671612fd8565b6020808252602d908201527f4552433732313a2063616c6c6572206973206e6f7420746f6b656e206f776e6560408201526c1c881bdc88185c1c1c9bdd9959609a1b606082015260800190565b5f8251613093818460208701612919565b9190910192915050565b601f82111561083f575f81815260208120601f850160051c810160208610156130c35750805b601f850160051c820191505b818110156130e2578281556001016130cf565b505050505050565b815167ffffffffffffffff81111561310457613104612a69565b613118816131128454612f70565b8461309d565b602080601f83116001811461314b575f84156131345750858301515b5f19600386901b1c1916600185901b1785556130e2565b5f85815260208120601f198616915b828110156131795788860151825594840194600190910190840161315a565b508582101561319657878501515f19600388901b60f8161c191681555b5050505050600190811b01905550565b604081525f6131b8604083018561293b565b90508260208301529392505050565b5f600182016131d8576131d8612fd8565b5060010190565b8082018082111561067157610671612fd8565b5f8351613203818460208801612919565b835190830190613217818360208801612919565b01949350505050565b60208082526025908201527f4552433732313a207472616e736665722066726f6d20696e636f72726563742060408201526437bbb732b960d91b606082015260800190565b60208082526032908201527f4552433732313a207472616e7366657220746f206e6f6e20455243373231526560408201527131b2b4bb32b91034b6b83632b6b2b73a32b960711b606082015260800190565b6001600160a01b03858116825284166020820152604081018390526080606082018190525f906132e99083018461293b565b9695505050505050565b5f60208284031215613303575f80fd5b8151612621816128e956fea26469706673582212207433136a983faddfd19232047e9fae07a49d3a94f4b59fd83f135f51fbf72dd964736f6c63430008140033",
  "immutableReferences": {},
  "source": "// SPDX-License-Identifier: MIT\r\npragma solidity ^0.8.20;\r\n\r\nimport \"@openzeppelin/contracts/token/ERC721/ERC721.sol\";\r\nimport \"@openzeppelin/contracts/token/ERC721/extensions/ERC721URIStorage.sol\";\r\nimport \"@openzeppelin/contracts/access/Ownable.sol\";\r\nimport \"@openzeppelin/contracts/security/ReentrancyGuard.sol\";\r\nimport \"@openzeppelin/contracts/utils/Counters.sol\";\r\n\r\n/**\r\n * @title ArtGallery\r\n * @dev NFT Art Gallery platform with gallery management, trading, and social features\r\n */\r\ncontract ArtGallery is ERC721URIStorage, ReentrancyGuard, Ownable {\r\n    using Counters for Counters.Counter;\r\n    \r\n    // State variables\r\n    Counters.Counter private _tokenIds;\r\n    Counters.Counter private _galleryIds;\r\n    uint256 public platformFee = 25; // 2.5% fee in basis points\r\n    \r\n    // Structs\r\n    struct Artwork {\r\n        string title;\r\n        address artist;\r\n        uint256 price;\r\n        bool forSale;\r\n        uint256 totalRatings;\r\n        uint256 ratingSum;\r\n        string galleryId;\r\n        uint256 royaltyPercentage;\r\n        uint256 createdAt;\r\n    }\r\n    \r\n    struct Gallery {\r\n        string name;\r\n        address curator;\r\n        uint256[] artworkIds;\r\n        bool isActive;\r\n        string description;\r\n        uint256 createdAt;\r\n    }\r\n    \r\n    struct Review {\r\n        address reviewer;\r\n        string comment;\r\n        uint256 rating;\r\n        uint256 timestamp;\r\n    }\r\n    \r\n    // Mappings\r\n    mapping(uint256 => Artwork) public artworks;\r\n    mapping(string => Gallery) public galleries;\r\n    mapping(uint256 => Review[]) public reviews;\r\n    mapping(uint256 => mapping(address => bool)) public hasRated;\r\n    mapping(address => uint256[]) public userArtworks;\r\n    mapping(address => string[]) public userGalleries;\r\n    \r\n    // Events\r\n    event ArtworkCreated(uint256 indexed tokenId, string title, address indexed artist, uint256 price);\r\n    event ArtworkSold(uint256 indexed tokenId, address indexed from, address indexed to, uint256 price);\r\n    event ReviewAdded(uint256 indexed tokenId, address indexed reviewer, string comment, uint256 rating);\r\n    event GalleryCreated(string indexed galleryId, string name, address indexed curator);\r\n    event PriceUpdated(uint256 indexed tokenId, uint256 newPrice);\r\n    event RoyaltyPaid(uint256 indexed tokenId, address indexed artist, uint256 amount);\r\n    \r\n    constructor() ERC721(\"NFT Art Gallery\", \"NAG\") Ownable() {}\r\n    \r\n    /**\r\n     * @dev Creates a new artwork NFT\r\n     */\r\n    function createArtwork(\r\n        string memory title,\r\n        string memory tokenURI,\r\n        uint256 price,\r\n        string memory galleryId,\r\n        uint256 royaltyPercentage\r\n    ) public nonReentrant returns (uint256) {\r\n        require(bytes(title).length > 0, \"Title cannot be empty\");\r\n        require(price > 0, \"Price must be greater than 0\");\r\n        require(galleries[galleryId].isActive, \"Gallery does not exist\");\r\n        require(royaltyPercentage <= 100, \"Royalty percentage cannot exceed 100\");\r\n        \r\n        _tokenIds.increment();\r\n        uint256 newTokenId = _tokenIds.current();\r\n        \r\n        _mint(msg.sender, newTokenId);\r\n        _setTokenURI(newTokenId, tokenURI);\r\n        \r\n        artworks[newTokenId] = Artwork({\r\n            title: title,\r\n            artist: msg.sender,\r\n            price: price,\r\n            forSale: true,\r\n            totalRatings: 0,\r\n            ratingSum: 0,\r\n            galleryId: galleryId,\r\n            royaltyPercentage: royaltyPercentage,\r\n            createdAt: block.timestamp\r\n        });\r\n        \r\n        galleries[galleryId].artworkIds.push(newTokenId);\r\n        userArtworks[msg.sender].push(newTokenId);\r\n        \r\n        emit ArtworkCreated(newTokenId, title, msg.sender, price);\r\n        return newTokenId;\r\n    }\r\n    \r\n    /**\r\n     * @dev Purchases an artwork and handles royalty payments\r\n     */\r\n    function purchaseArtwork(uint256 tokenId) public payable nonReentrant {\r\n        require(_exists(tokenId), \"Artwork does not exist\");\r\n        Artwork storage artwork = artworks[tokenId];\r\n        require(artwork.forSale, \"Artwork is not for sale\");\r\n        require(msg.value >= artwork.price, \"Insufficient payment\");\r\n        \r\n        address seller = ownerOf(tokenId);\r\n        \r\n        // Calculate platform fee\r\n        uint256 platformFeeAmount = (msg.value * platformFee) / 1000;\r\n        \r\n        // Calculate royalty if the seller is not the artist\r\n        uint256 royaltyAmount = 0;\r\n        if (seller != artwork.artist) {\r\n            royaltyAmount = (msg.value * artwork.royaltyPercentage) / 100;\r\n            payable(artwork.artist).transfer(royaltyAmount);\r\n            emit RoyaltyPaid(tokenId, artwork.artist, royaltyAmount);\r\n        }\r\n        \r\n        // Transfer ownership\r\n        _transfer(seller, msg.sender, tokenId);\r\n        \r\n        // Transfer payments\r\n        payable(owner()).transfer(platformFeeAmount);\r\n        payable(seller).transfer(msg.value - platformFeeAmount - royaltyAmount);\r\n        \r\n        // Update artwork status\r\n        artwork.forSale = false;\r\n        \r\n        emit ArtworkSold(tokenId, seller, msg.sender, msg.value);\r\n    }\r\n    \r\n    /**\r\n     * @dev Creates a new virtual gallery\r\n     */\r\n    function createGallery(\r\n        string memory galleryId,\r\n        string memory name,\r\n        string memory description\r\n    ) public {\r\n        require(bytes(galleryId).length > 0, \"Gallery ID cannot be empty\");\r\n        require(bytes(name).length > 0, \"Gallery name cannot be empty\");\r\n        require(!galleries[galleryId].isActive, \"Gallery ID already exists\");\r\n        \r\n        galleries[galleryId] = Gallery({\r\n            name: name,\r\n            curator: msg.sender,\r\n            artworkIds: new uint256[](0),\r\n            isActive: true,\r\n            description: description,\r\n            createdAt: block.timestamp\r\n        });\r\n        \r\n        userGalleries[msg.sender].push(galleryId);\r\n        \r\n        emit GalleryCreated(galleryId, name, msg.sender);\r\n    }\r\n    \r\n    /**\r\n     * @dev Adds a review with rating to an artwork\r\n     */\r\n    function addReview(uint256 tokenId, string memory comment, uint256 rating) public {\r\n        require(_exists(tokenId), \"Artwork does not exist\");\r\n        require(rating >= 1 && rating <= 5, \"Rating must be between 1 and 5\");\r\n        require(!hasRated[tokenId][msg.sender], \"User has already rated this artwork\");\r\n        \r\n        reviews[tokenId].push(Review({\r\n            reviewer: msg.sender,\r\n            comment: comment,\r\n            rating: rating,\r\n            timestamp: block.timestamp\r\n        }));\r\n        \r\n        Artwork storage artwork = artworks[tokenId];\r\n        artwork.totalRatings++;\r\n        artwork.ratingSum += rating;\r\n        hasRated[tokenId][msg.sender] = true;\r\n        \r\n        emit ReviewAdded(tokenId, msg.sender, comment, rating);\r\n    }\r\n    \r\n    // Getter functions\r\n    function getArtwork(uint256 tokenId) public view returns (\r\n        string memory title,\r\n        address artist,\r\n        uint256 price,\r\n        bool forSale,\r\n        uint256 avgRating,\r\n        string memory galleryId,\r\n        uint256 royaltyPercentage\r\n    ) {\r\n        require(_exists(tokenId), \"Artwork does not exist\");\r\n        Artwork storage artwork = artworks[tokenId];\r\n        \r\n        return (\r\n            artwork.title,\r\n            artwork.artist,\r\n            artwork.price,\r\n            artwork.forSale,\r\n            artwork.totalRatings > 0 ? artwork.ratingSum / artwork.totalRatings : 0,\r\n            artwork.galleryId,\r\n            artwork.royaltyPercentage\r\n        );\r\n    }\r\n    \r\n    function getGalleryArtworks(string memory galleryId) public view returns (uint256[] memory) {\r\n        require(galleries[galleryId].isActive, \"Gallery does not exist\");\r\n        return galleries[galleryId].artworkIds;\r\n    }\r\n    \r\n    function getUserArtworks(address user) public view returns (uint256[] memory) {\r\n        return userArtworks[user];\r\n    }\r\n    \r\n    function getUserGalleries(address user) public view returns (string[] memory) {\r\n        return userGalleries[user];\r\n    }\r\n    \r\n    // Admin functions\r\n    function updatePlatformFee(uint256 newFee) public onlyOwner {\r\n        require(newFee <= 100, \"Fee cannot exceed 10%\");\r\n        platformFee = newFee;\r\n    }\r\n}",
  "sourcePath": "C:\\Users\\dariga\\blockchain\\nft-art-gallery-new\\contracts\\ArtGallery.sol",
  "compiler": {
    "name": "solc",
    "version": "0.8.20+commit.a1b79de6.Emscripten.clang"
  },
  "schemaVersion": "3.4.16",
  "updatedAt": "2025-02-10T08:45:45.136Z",
  "devdoc": {
    "details": "NFT Art Gallery platform with gallery management, trading, and social features",
    "events": {
      "Approval(address,address,uint256)": {
        "details": "Emitted when `owner` enables `approved` to manage the `tokenId` token."
      },
      "ApprovalForAll(address,address,bool)": {
        "details": "Emitted when `owner` enables or disables (`approved`) `operator` to manage all of its assets."
      },
      "BatchMetadataUpdate(uint256,uint256)": {
        "details": "This event emits when the metadata of a range of tokens is changed. So that the third-party platforms such as NFT market could timely update the images and related attributes of the NFTs."
      },
      "MetadataUpdate(uint256)": {
        "details": "This event emits when the metadata of a token is changed. So that the third-party platforms such as NFT market could timely update the images and related attributes of the NFT."
      },
      "Transfer(address,address,uint256)": {
        "details": "Emitted when `tokenId` token is transferred from `from` to `to`."
      }
    },
    "kind": "dev",
    "methods": {
      "addReview(uint256,string,uint256)": {
        "details": "Adds a review with rating to an artwork"
      },
      "approve(address,uint256)": {
        "details": "See {IERC721-approve}."
      },
      "balanceOf(address)": {
        "details": "See {IERC721-balanceOf}."
      },
      "createArtwork(string,string,uint256,string,uint256)": {
        "details": "Creates a new artwork NFT"
      },
      "createGallery(string,string,string)": {
        "details": "Creates a new virtual gallery"
      },
      "getApproved(uint256)": {
        "details": "See {IERC721-getApproved}."
      },
      "isApprovedForAll(address,address)": {
        "details": "See {IERC721-isApprovedForAll}."
      },
      "name()": {
        "details": "See {IERC721Metadata-name}."
      },
      "owner()": {
        "details": "Returns the address of the current owner."
      },
      "ownerOf(uint256)": {
        "details": "See {IERC721-ownerOf}."
      },
      "purchaseArtwork(uint256)": {
        "details": "Purchases an artwork and handles royalty payments"
      },
      "renounceOwnership()": {
        "details": "Leaves the contract without owner. It will not be possible to call `onlyOwner` functions. Can only be called by the current owner. NOTE: Renouncing ownership will leave the contract without an owner, thereby disabling any functionality that is only available to the owner."
      },
      "safeTransferFrom(address,address,uint256)": {
        "details": "See {IERC721-safeTransferFrom}."
      },
      "safeTransferFrom(address,address,uint256,bytes)": {
        "details": "See {IERC721-safeTransferFrom}."
      },
      "setApprovalForAll(address,bool)": {
        "details": "See {IERC721-setApprovalForAll}."
      },
      "supportsInterface(bytes4)": {
        "details": "See {IERC165-supportsInterface}"
      },
      "symbol()": {
        "details": "See {IERC721Metadata-symbol}."
      },
      "tokenURI(uint256)": {
        "details": "See {IERC721Metadata-tokenURI}."
      },
      "transferFrom(address,address,uint256)": {
        "details": "See {IERC721-transferFrom}."
      },
      "transferOwnership(address)": {
        "details": "Transfers ownership of the contract to a new account (`newOwner`). Can only be called by the current owner."
      }
    },
    "title": "ArtGallery",
    "version": 1
  },
  "userdoc": {
    "kind": "user",
    "methods": {},
    "version": 1
  }
}